{
  "contractName": "Election",
  "abi": [
    {
      "inputs": [],
      "payable": false,
      "stateMutability": "nonpayable",
      "type": "constructor"
    },
    {
      "constant": true,
      "inputs": [
        {
          "internalType": "uint256",
          "name": "",
          "type": "uint256"
        }
      ],
      "name": "candidates",
      "outputs": [
        {
          "internalType": "uint256",
          "name": "id",
          "type": "uint256"
        },
        {
          "internalType": "string",
          "name": "name",
          "type": "string"
        },
        {
          "internalType": "uint256",
          "name": "voteCount",
          "type": "uint256"
        }
      ],
      "payable": false,
      "stateMutability": "view",
      "type": "function"
    },
    {
      "constant": true,
      "inputs": [],
      "name": "candidatesCount",
      "outputs": [
        {
          "internalType": "uint256",
          "name": "",
          "type": "uint256"
        }
      ],
      "payable": false,
      "stateMutability": "view",
      "type": "function"
    },
    {
      "constant": true,
      "inputs": [
        {
          "internalType": "uint256",
          "name": "",
          "type": "uint256"
        }
      ],
      "name": "ranks",
      "outputs": [
        {
          "internalType": "uint256",
          "name": "idNum",
          "type": "uint256"
        },
        {
          "internalType": "string",
          "name": "name",
          "type": "string"
        },
        {
          "internalType": "uint256",
          "name": "voteCount",
          "type": "uint256"
        }
      ],
      "payable": false,
      "stateMutability": "view",
      "type": "function"
    },
    {
      "constant": true,
      "inputs": [
        {
          "internalType": "address",
          "name": "",
          "type": "address"
        }
      ],
      "name": "voters",
      "outputs": [
        {
          "internalType": "bool",
          "name": "",
          "type": "bool"
        }
      ],
      "payable": false,
      "stateMutability": "view",
      "type": "function"
    },
    {
      "constant": false,
      "inputs": [
        {
          "internalType": "string",
          "name": "_name",
          "type": "string"
        }
      ],
      "name": "addCandidate",
      "outputs": [],
      "payable": false,
      "stateMutability": "nonpayable",
      "type": "function"
    },
    {
      "constant": false,
      "inputs": [
        {
          "internalType": "uint256",
          "name": "_candidateId",
          "type": "uint256"
        }
      ],
      "name": "vote",
      "outputs": [],
      "payable": false,
      "stateMutability": "nonpayable",
      "type": "function"
    },
    {
      "constant": false,
      "inputs": [
        {
          "internalType": "uint256",
          "name": "idNum",
          "type": "uint256"
        }
      ],
      "name": "rankingSort",
      "outputs": [],
      "payable": false,
      "stateMutability": "nonpayable",
      "type": "function"
    },
    {
      "constant": false,
      "inputs": [],
      "name": "updateTime",
      "outputs": [],
      "payable": false,
      "stateMutability": "nonpayable",
      "type": "function"
    },
    {
      "constant": true,
      "inputs": [],
      "name": "fiveMinsHavePassed",
      "outputs": [
        {
          "internalType": "bool",
          "name": "",
          "type": "bool"
        }
      ],
      "payable": false,
      "stateMutability": "view",
      "type": "function"
    },
    {
      "constant": true,
      "inputs": [],
      "name": "timeUp",
      "outputs": [
        {
          "internalType": "bool",
          "name": "",
          "type": "bool"
        }
      ],
      "payable": false,
      "stateMutability": "view",
      "type": "function"
    }
  ],
  "bytecode": "0x60806040523480156200001157600080fd5b50620000586040518060400160405280600981526020017f53616d20536d69746800000000000000000000000000000000000000000000008152506200028e60201b60201c565b6200009e6040518060400160405280600a81526020017f4164656c6520426c7565000000000000000000000000000000000000000000008152506200028e60201b60201c565b620000e46040518060400160405280600381526020017f53696100000000000000000000000000000000000000000000000000000000008152506200028e60201b60201c565b6200012a6040518060400160405280600a81526020017f4272756e6f204d617273000000000000000000000000000000000000000000008152506200028e60201b60201c565b620001706040518060400160405280600b81526020017f5374617469632049726f6e0000000000000000000000000000000000000000008152506200028e60201b60201c565b620001b66040518060400160405280600f81526020017f4d69636861656c204a61636b736f6e00000000000000000000000000000000008152506200028e60201b60201c565b620001fc6040518060400160405280600581526020017f5a7a6173650000000000000000000000000000000000000000000000000000008152506200028e60201b60201c565b620002426040518060400160405280600381526020017f41414100000000000000000000000000000000000000000000000000000000008152506200028e60201b60201c565b620002886040518060400160405280600381526020017f42424200000000000000000000000000000000000000000000000000000000008152506200028e60201b60201c565b62000424565b600160008154809291906001019190505550604051806060016040528060015481526020018281526020016000815250600360006001548152602001908152602001600020600082015181600001556020820151816001019080519060200190620002fb92919062000375565b50604082015181600201559050506040518060600160405280600154815260200182815260200160008152506002600060015481526020019081526020016000206000820151816000015560208201518160010190805190602001906200036492919062000375565b506040820151816002015590505050565b828054600181600116156101000203166002900490600052602060002090601f016020900481019282601f10620003b857805160ff1916838001178555620003e9565b82800160010185558215620003e9579182015b82811115620003e8578251825591602001919060010190620003cb565b5b509050620003f89190620003fc565b5090565b6200042191905b808211156200041d57600081600090555060010162000403565b5090565b90565b610c5380620004346000396000f3fe608060405234801561001057600080fd5b506004361061009e5760003560e01c8063462e91ec11610066578063462e91ec146101f4578063a3ec138d146102af578063b535841a1461030b578063dc5550901461032d578063df927bbe146103375761009e565b80630121b93f146100a35780632d35a8a2146100d1578063315d11a1146100ef5780633477ee2e146101115780633ab3a0c3146101c6575b600080fd5b6100cf600480360360208110156100b957600080fd5b81019080803590602001909291905050506103ec565b005b6100d9610550565b6040518082815260200191505060405180910390f35b6100f7610556565b604051808215151515815260200191505060405180910390f35b61013d6004803603602081101561012757600080fd5b8101908080359060200190929190505050610565565b6040518084815260200180602001838152602001828103825284818151815260200191508051906020019080838360005b8381101561018957808201518184015260208101905061016e565b50505050905090810190601f1680156101b65780820380516001836020036101000a031916815260200191505b5094505050505060405180910390f35b6101f2600480360360208110156101dc57600080fd5b8101908080359060200190929190505050610627565b005b6102ad6004803603602081101561020a57600080fd5b810190808035906020019064010000000081111561022757600080fd5b82018360208201111561023957600080fd5b8035906020019184600183028401116401000000008311171561025b57600080fd5b91908080601f016020809104026020016040519081016040528093929190818152602001838380828437600081840152601f19601f820116905080830192505050505050509192919290505050610893565b005b6102f1600480360360208110156102c557600080fd5b81019080803573ffffffffffffffffffffffffffffffffffffffff169060200190929190505050610976565b604051808215151515815260200191505060405180910390f35b610313610996565b604051808215151515815260200191505060405180910390f35b6103356109a7565b005b6103636004803603602081101561034d57600080fd5b81019080803590602001909291905050506109b0565b6040518084815260200180602001838152602001828103825284818151815260200191508051906020019080838360005b838110156103af578082015181840152602081019050610394565b50505050905090810190601f1680156103dc5780820380516001836020036101000a031916815260200191505b5094505050505060405180910390f35b600460003373ffffffffffffffffffffffffffffffffffffffff1673ffffffffffffffffffffffffffffffffffffffff16815260200190815260200160002060009054906101000a900460ff161561044357600080fd5b60008111801561045557506001548111155b61045e57600080fd5b6001600460003373ffffffffffffffffffffffffffffffffffffffff1673ffffffffffffffffffffffffffffffffffffffff16815260200190815260200160002060006101000a81548160ff02191690831515021790555060036000828152602001908152602001600020600201600081548092919060010191905055506000600190505b60015481101561054c57816002600083815260200190815260200160002060000154141561053f57600260008281526020019081526020016000206002016000815480929190600101919050555061053a81610627565b61054c565b80806001019150506104e3565b5050565b60015481565b60006360fa68f0421015905090565b6003602052806000526040600020600091509050806000015490806001018054600181600116156101000203166002900480601f0160208091040260200160405190810160405280929190818152602001828054600181600116156101000203166002900480156106175780601f106105ec57610100808354040283529160200191610617565b820191906000526020600020905b8154815290600101906020018083116105fa57829003601f168201915b5050505050908060020154905083565b60008190505b600181111561088f5760026000600183038152602001908152602001600020600201546002600083815260200190815260200160002060020154111561087c576000600260008381526020019081526020016000206000015490506002600060018403815260200190815260200160002060000154600260008481526020019081526020016000206000018190555080600260006001850381526020019081526020016000206000018190555060026000838152602001908152602001600020600201549050600260006001840381526020019081526020016000206002015460026000848152602001908152602001600020600201819055508060026000600185038152602001908152602001600020600201819055506060600260008481526020019081526020016000206001018054600181600116156101000203166002900480601f0160208091040260200160405190810160405280929190818152602001828054600181600116156101000203166002900480156107f15780601f106107c6576101008083540402835291602001916107f1565b820191906000526020600020905b8154815290600101906020018083116107d457829003601f168201915b5050505050905060026000600185038152602001908152602001600020600101600260008581526020019081526020016000206001019080546001816001161561010002031660029004610846929190610a72565b5080600260006001860381526020019081526020016000206001019080519060200190610874929190610af9565b505050610881565b61088f565b80806001900391505061062d565b5050565b6001600081548092919060010191905055506040518060600160405280600154815260200182815260200160008152506003600060015481526020019081526020016000206000820151816000015560208201518160010190805190602001906108fe929190610b79565b5060408201518160020155905050604051806060016040528060015481526020018281526020016000815250600260006001548152602001908152602001600020600082015181600001556020820151816001019080519060200190610965929190610b79565b506040820151816002015590505050565b60046020528060005260406000206000915054906101000a900460ff1681565b600061012c60005401421015905090565b42600081905550565b6002602052806000526040600020600091509050806000015490806001018054600181600116156101000203166002900480601f016020809104026020016040519081016040528092919081815260200182805460018160011615610100020316600290048015610a625780601f10610a3757610100808354040283529160200191610a62565b820191906000526020600020905b815481529060010190602001808311610a4557829003601f168201915b5050505050908060020154905083565b828054600181600116156101000203166002900490600052602060002090601f016020900481019282601f10610aab5780548555610ae8565b82800160010185558215610ae857600052602060002091601f016020900482015b82811115610ae7578254825591600101919060010190610acc565b5b509050610af59190610bf9565b5090565b828054600181600116156101000203166002900490600052602060002090601f016020900481019282601f10610b3a57805160ff1916838001178555610b68565b82800160010185558215610b68579182015b82811115610b67578251825591602001919060010190610b4c565b5b509050610b759190610bf9565b5090565b828054600181600116156101000203166002900490600052602060002090601f016020900481019282601f10610bba57805160ff1916838001178555610be8565b82800160010185558215610be8579182015b82811115610be7578251825591602001919060010190610bcc565b5b509050610bf59190610bf9565b5090565b610c1b91905b80821115610c17576000816000905550600101610bff565b5090565b9056fea265627a7a723158208b6d1405c6e5c246472a4181892d9a0de50da4ef6b3d25a19d0b1b96b4cffbd064736f6c63430005100032",
  "source": "pragma solidity >= 0.4.2 < 0.7.0;\n\ncontract Election {\n    struct Candidate {\n        uint id;\n        string name;\n        uint voteCount;\n    }\n    struct RankInfo{\n        uint idNum;\n        string name;\n        uint voteCount;\n    }\n    uint startTime;\n    uint public candidatesCount;\n    mapping(uint => RankInfo) public ranks;\n    mapping(uint => Candidate) public candidates;\n    mapping(address => bool) public voters;\n\n    function addCandidate (string memory _name) public {\n        candidatesCount++;\n        candidates[candidatesCount] = Candidate(candidatesCount, _name, 0);\n        ranks[candidatesCount] = RankInfo(candidatesCount, _name, 0);\n    }\n\n    constructor() public {\n        addCandidate('Sam Smith');\n        addCandidate('Adele Blue');\n        addCandidate('Sia');\n        addCandidate('Bruno Mars');\n        addCandidate('Static Iron');\n        addCandidate('Michael Jackson');\n        addCandidate('Zzase');\n        addCandidate('AAA');\n        addCandidate('BBB');\n    }\n\n    function vote(uint _candidateId) public {\n        require(!voters[msg.sender]);\n        require(_candidateId > 0 && _candidateId <= candidatesCount);\n        voters[msg.sender] = true;\n        candidates[_candidateId].voteCount ++;\n        for(uint i=1; i<candidatesCount; i++){\n            if(ranks[i].idNum == _candidateId){\n                ranks[i].voteCount++;\n                rankingSort(i);\n                break;\n            }\n        }\n        // ranks[_candidateId].voteCount ++;\n    }\n\n    function rankingSort(uint idNum) public {\n        for(uint i=idNum; i>1; i--){\n            if(ranks[i].voteCount > ranks[i-1].voteCount){\n                uint temp = ranks[i].idNum;\n                ranks[i].idNum = ranks[i-1].idNum;\n                ranks[i-1].idNum = temp;\n\n                temp = ranks[i].voteCount;\n                ranks[i].voteCount = ranks[i-1].voteCount;\n                ranks[i-1].voteCount = temp;\n\n                string memory str = ranks[i].name;\n                ranks[i].name = ranks[i-1].name;\n                ranks[i-1].name = str;\n            }else{\n                break;\n            }\n        }\n    }\n\n    function updateTime() public {\n        startTime = now;\n    }\n\n    function fiveMinsHavePassed() public view returns (bool){\n        return (now >= (startTime + 5 minutes));\n    }\n    \n    function timeUp() public view returns (bool) {\n        return (now >= 1627023600);//Fri Jul 23 2021 16:00:00       today 1:00\n    }\n}\n    ",
  "sourcePath": "/home/peer0/Ethereum/o2-project/contracts/Election.sol",
  "compiler": {
    "name": "solc",
    "version": "0.5.16+commit.9c3226ce.Emscripten.clang"
  },
  "schemaVersion": "3.4.1",
  "updatedAt": "2021-07-23T07:45:14.248Z",
  "networkType": "ethereum",
  "devdoc": {
    "methods": {}
  },
  "userdoc": {
    "methods": {}
  }
}